{
  "_format": "hh-sol-artifact-1",
  "contractName": "CachePresale",
  "sourceName": "contracts/CachePresale.sol",
  "abi": [
    {
      "inputs": [
        {
          "internalType": "address",
          "name": "_adminSigner",
          "type": "address"
        },
        {
          "internalType": "address",
          "name": "_treasury",
          "type": "address"
        }
      ],
      "stateMutability": "nonpayable",
      "type": "constructor"
    },
    {
      "inputs": [],
      "name": "ECDSAInvalidSignature",
      "type": "error"
    },
    {
      "inputs": [
        {
          "internalType": "uint256",
          "name": "length",
          "type": "uint256"
        }
      ],
      "name": "ECDSAInvalidSignatureLength",
      "type": "error"
    },
    {
      "inputs": [
        {
          "internalType": "bytes32",
          "name": "s",
          "type": "bytes32"
        }
      ],
      "name": "ECDSAInvalidSignatureS",
      "type": "error"
    },
    {
      "inputs": [],
      "name": "EnforcedPause",
      "type": "error"
    },
    {
      "inputs": [],
      "name": "ExpectedPause",
      "type": "error"
    },
    {
      "inputs": [],
      "name": "InvalidShortString",
      "type": "error"
    },
    {
      "inputs": [
        {
          "internalType": "address",
          "name": "owner",
          "type": "address"
        }
      ],
      "name": "OwnableInvalidOwner",
      "type": "error"
    },
    {
      "inputs": [
        {
          "internalType": "address",
          "name": "account",
          "type": "address"
        }
      ],
      "name": "OwnableUnauthorizedAccount",
      "type": "error"
    },
    {
      "inputs": [
        {
          "internalType": "address",
          "name": "token",
          "type": "address"
        }
      ],
      "name": "SafeERC20FailedOperation",
      "type": "error"
    },
    {
      "inputs": [
        {
          "internalType": "string",
          "name": "str",
          "type": "string"
        }
      ],
      "name": "StringTooLong",
      "type": "error"
    },
    {
      "anonymous": false,
      "inputs": [
        {
          "indexed": true,
          "internalType": "address",
          "name": "buyer",
          "type": "address"
        },
        {
          "indexed": true,
          "internalType": "address",
          "name": "paymentToken",
          "type": "address"
        },
        {
          "indexed": false,
          "internalType": "uint256",
          "name": "amountPaid",
          "type": "uint256"
        },
        {
          "indexed": false,
          "internalType": "uint256",
          "name": "amountReceived",
          "type": "uint256"
        },
        {
          "indexed": false,
          "internalType": "uint256",
          "name": "date",
          "type": "uint256"
        }
      ],
      "name": "CachePurchased",
      "type": "event"
    },
    {
      "anonymous": false,
      "inputs": [],
      "name": "EIP712DomainChanged",
      "type": "event"
    },
    {
      "anonymous": false,
      "inputs": [
        {
          "indexed": true,
          "internalType": "address",
          "name": "previousOwner",
          "type": "address"
        },
        {
          "indexed": true,
          "internalType": "address",
          "name": "newOwner",
          "type": "address"
        }
      ],
      "name": "OwnershipTransferred",
      "type": "event"
    },
    {
      "anonymous": false,
      "inputs": [
        {
          "indexed": false,
          "internalType": "address",
          "name": "account",
          "type": "address"
        }
      ],
      "name": "Paused",
      "type": "event"
    },
    {
      "anonymous": false,
      "inputs": [
        {
          "indexed": true,
          "internalType": "bytes32",
          "name": "signatureHash",
          "type": "bytes32"
        }
      ],
      "name": "SignatureUsed",
      "type": "event"
    },
    {
      "anonymous": false,
      "inputs": [
        {
          "indexed": false,
          "internalType": "address",
          "name": "account",
          "type": "address"
        }
      ],
      "name": "Unpaused",
      "type": "event"
    },
    {
      "inputs": [],
      "name": "TOKEN_SALE_HARD_CAP",
      "outputs": [
        {
          "internalType": "uint256",
          "name": "",
          "type": "uint256"
        }
      ],
      "stateMutability": "view",
      "type": "function"
    },
    {
      "inputs": [],
      "name": "adminSigner",
      "outputs": [
        {
          "internalType": "address",
          "name": "",
          "type": "address"
        }
      ],
      "stateMutability": "view",
      "type": "function"
    },
    {
      "inputs": [
        {
          "internalType": "address",
          "name": "_paymentToken",
          "type": "address"
        },
        {
          "internalType": "uint256",
          "name": "_amountPaid",
          "type": "uint256"
        },
        {
          "internalType": "uint256",
          "name": "_amountReceived",
          "type": "uint256"
        },
        {
          "internalType": "uint32",
          "name": "_timeSigned",
          "type": "uint32"
        },
        {
          "internalType": "uint256",
          "name": "_salt",
          "type": "uint256"
        },
        {
          "internalType": "bytes",
          "name": "_signedMessage",
          "type": "bytes"
        }
      ],
      "name": "buyCache",
      "outputs": [],
      "stateMutability": "nonpayable",
      "type": "function"
    },
    {
      "inputs": [
        {
          "internalType": "uint256",
          "name": "_amountPaid",
          "type": "uint256"
        },
        {
          "internalType": "uint256",
          "name": "_amountReceived",
          "type": "uint256"
        },
        {
          "internalType": "uint32",
          "name": "_timeSigned",
          "type": "uint32"
        },
        {
          "internalType": "uint256",
          "name": "_salt",
          "type": "uint256"
        },
        {
          "internalType": "bytes",
          "name": "_signedMessage",
          "type": "bytes"
        }
      ],
      "name": "buyCacheWithEth",
      "outputs": [],
      "stateMutability": "payable",
      "type": "function"
    },
    {
      "inputs": [],
      "name": "eip712Domain",
      "outputs": [
        {
          "internalType": "bytes1",
          "name": "fields",
          "type": "bytes1"
        },
        {
          "internalType": "string",
          "name": "name",
          "type": "string"
        },
        {
          "internalType": "string",
          "name": "version",
          "type": "string"
        },
        {
          "internalType": "uint256",
          "name": "chainId",
          "type": "uint256"
        },
        {
          "internalType": "address",
          "name": "verifyingContract",
          "type": "address"
        },
        {
          "internalType": "bytes32",
          "name": "salt",
          "type": "bytes32"
        },
        {
          "internalType": "uint256[]",
          "name": "extensions",
          "type": "uint256[]"
        }
      ],
      "stateMutability": "view",
      "type": "function"
    },
    {
      "inputs": [
        {
          "internalType": "address",
          "name": "_user",
          "type": "address"
        }
      ],
      "name": "getUserPurchases",
      "outputs": [
        {
          "components": [
            {
              "internalType": "uint256",
              "name": "date",
              "type": "uint256"
            },
            {
              "internalType": "uint256",
              "name": "purchaseAmount",
              "type": "uint256"
            }
          ],
          "internalType": "struct CachePresale.Purchase[]",
          "name": "",
          "type": "tuple[]"
        }
      ],
      "stateMutability": "view",
      "type": "function"
    },
    {
      "inputs": [
        {
          "internalType": "address",
          "name": "_user",
          "type": "address"
        }
      ],
      "name": "getUserTotalCache",
      "outputs": [
        {
          "internalType": "uint256",
          "name": "",
          "type": "uint256"
        }
      ],
      "stateMutability": "view",
      "type": "function"
    },
    {
      "inputs": [],
      "name": "owner",
      "outputs": [
        {
          "internalType": "address",
          "name": "",
          "type": "address"
        }
      ],
      "stateMutability": "view",
      "type": "function"
    },
    {
      "inputs": [],
      "name": "pause",
      "outputs": [],
      "stateMutability": "nonpayable",
      "type": "function"
    },
    {
      "inputs": [],
      "name": "paused",
      "outputs": [
        {
          "internalType": "bool",
          "name": "",
          "type": "bool"
        }
      ],
      "stateMutability": "view",
      "type": "function"
    },
    {
      "inputs": [],
      "name": "renounceOwnership",
      "outputs": [],
      "stateMutability": "nonpayable",
      "type": "function"
    },
    {
      "inputs": [],
      "name": "tokensSold",
      "outputs": [
        {
          "internalType": "uint256",
          "name": "",
          "type": "uint256"
        }
      ],
      "stateMutability": "view",
      "type": "function"
    },
    {
      "inputs": [
        {
          "internalType": "address",
          "name": "newOwner",
          "type": "address"
        }
      ],
      "name": "transferOwnership",
      "outputs": [],
      "stateMutability": "nonpayable",
      "type": "function"
    },
    {
      "inputs": [],
      "name": "treasury",
      "outputs": [
        {
          "internalType": "address",
          "name": "",
          "type": "address"
        }
      ],
      "stateMutability": "view",
      "type": "function"
    },
    {
      "inputs": [],
      "name": "unpause",
      "outputs": [],
      "stateMutability": "nonpayable",
      "type": "function"
    },
    {
      "inputs": [
        {
          "internalType": "bytes32",
          "name": "",
          "type": "bytes32"
        }
      ],
      "name": "usedSignatures",
      "outputs": [
        {
          "internalType": "bool",
          "name": "",
          "type": "bool"
        }
      ],
      "stateMutability": "view",
      "type": "function"
    },
    {
      "inputs": [
        {
          "internalType": "address",
          "name": "",
          "type": "address"
        },
        {
          "internalType": "uint256",
          "name": "",
          "type": "uint256"
        }
      ],
      "name": "userPurchases",
      "outputs": [
        {
          "internalType": "uint256",
          "name": "date",
          "type": "uint256"
        },
        {
          "internalType": "uint256",
          "name": "purchaseAmount",
          "type": "uint256"
        }
      ],
      "stateMutability": "view",
      "type": "function"
    },
    {
      "inputs": [
        {
          "internalType": "address",
          "name": "",
          "type": "address"
        }
      ],
      "name": "userTotalCache",
      "outputs": [
        {
          "internalType": "uint256",
          "name": "",
          "type": "uint256"
        }
      ],
      "stateMutability": "view",
      "type": "function"
    },
    {
      "stateMutability": "payable",
      "type": "receive"
    }
  ],
  "bytecode": "0x6101a060405234801561001157600080fd5b5060405161367938038061367983398181016040528101906100339190610561565b336040518060400160405280600c81526020017f436163686550726573616c6500000000000000000000000000000000000000008152506040518060400160405280600181526020017f31000000000000000000000000000000000000000000000000000000000000008152506100b460008361031b60201b90919060201c565b61012081815250506100d060018261031b60201b90919060201c565b6101408181525050818051906020012060e08181525050808051906020012061010081815250504660a0818152505061010d61036b60201b60201c565b608081815250503073ffffffffffffffffffffffffffffffffffffffff1660c08173ffffffffffffffffffffffffffffffffffffffff16815250505050600073ffffffffffffffffffffffffffffffffffffffff168173ffffffffffffffffffffffffffffffffffffffff16036101bc5760006040517f1e4fbdf70000000000000000000000000000000000000000000000000000000081526004016101b391906105b0565b60405180910390fd5b6101cb816103c660201b60201c565b50600073ffffffffffffffffffffffffffffffffffffffff168273ffffffffffffffffffffffffffffffffffffffff160361023b576040517f08c379a000000000000000000000000000000000000000000000000000000000815260040161023290610628565b60405180910390fd5b600073ffffffffffffffffffffffffffffffffffffffff168173ffffffffffffffffffffffffffffffffffffffff16036102aa576040517f08c379a00000000000000000000000000000000000000000000000000000000081526004016102a190610694565b60405180910390fd5b8173ffffffffffffffffffffffffffffffffffffffff166101608173ffffffffffffffffffffffffffffffffffffffff16815250508073ffffffffffffffffffffffffffffffffffffffff166101808173ffffffffffffffffffffffffffffffffffffffff16815250505050610b7e565b600060208351101561033d576103368361048c60201b60201c565b9050610365565b8261034d836104f460201b60201c565b600001908161035c9190610904565b5060ff60001b90505b92915050565b60007f8b73c3c69bb8fe3d512ecc4cf759cc79239f7b179b0ffacaa9a75d522b39400f60e0516101005146306040516020016103ab9594939291906109fe565b60405160208183030381529060405280519060200120905090565b6000600260009054906101000a900473ffffffffffffffffffffffffffffffffffffffff16905081600260006101000a81548173ffffffffffffffffffffffffffffffffffffffff021916908373ffffffffffffffffffffffffffffffffffffffff1602179055508173ffffffffffffffffffffffffffffffffffffffff168173ffffffffffffffffffffffffffffffffffffffff167f8be0079c531659141344cd1fd0a4f28419497f9722a3daafe3b4186f6b6457e060405160405180910390a35050565b600080829050601f815111156104d957826040517f305a27a90000000000000000000000000000000000000000000000000000000081526004016104d09190610ac5565b60405180910390fd5b8051816104e590610b17565b60001c1760001b915050919050565b6000819050919050565b600080fd5b600073ffffffffffffffffffffffffffffffffffffffff82169050919050565b600061052e82610503565b9050919050565b61053e81610523565b811461054957600080fd5b50565b60008151905061055b81610535565b92915050565b60008060408385031215610578576105776104fe565b5b60006105868582860161054c565b92505060206105978582860161054c565b9150509250929050565b6105aa81610523565b82525050565b60006020820190506105c560008301846105a1565b92915050565b600082825260208201905092915050565b7f496e76616c69642061646d696e207369676e6572206164647265737300000000600082015250565b6000610612601c836105cb565b915061061d826105dc565b602082019050919050565b6000602082019050818103600083015261064181610605565b9050919050565b7f496e76616c696420747265617375727920616464726573730000000000000000600082015250565b600061067e6018836105cb565b915061068982610648565b602082019050919050565b600060208201905081810360008301526106ad81610671565b9050919050565b600081519050919050565b7f4e487b7100000000000000000000000000000000000000000000000000000000600052604160045260246000fd5b7f4e487b7100000000000000000000000000000000000000000000000000000000600052602260045260246000fd5b6000600282049050600182168061073557607f821691505b602082108103610748576107476106ee565b5b50919050565b60008190508160005260206000209050919050565b60006020601f8301049050919050565b600082821b905092915050565b6000600883026107b07fffffffffffffffffffffffffffffffffffffffffffffffffffffffffffffffff82610773565b6107ba8683610773565b95508019841693508086168417925050509392505050565b6000819050919050565b6000819050919050565b60006108016107fc6107f7846107d2565b6107dc565b6107d2565b9050919050565b6000819050919050565b61081b836107e6565b61082f61082782610808565b848454610780565b825550505050565b600090565b610844610837565b61084f818484610812565b505050565b5b818110156108735761086860008261083c565b600181019050610855565b5050565b601f8211156108b8576108898161074e565b61089284610763565b810160208510156108a1578190505b6108b56108ad85610763565b830182610854565b50505b505050565b600082821c905092915050565b60006108db600019846008026108bd565b1980831691505092915050565b60006108f483836108ca565b9150826002028217905092915050565b61090d826106b4565b67ffffffffffffffff811115610926576109256106bf565b5b610930825461071d565b61093b828285610877565b600060209050601f83116001811461096e576000841561095c578287015190505b61096685826108e8565b8655506109ce565b601f19841661097c8661074e565b60005b828110156109a45784890151825560018201915060208501945060208101905061097f565b868310156109c157848901516109bd601f8916826108ca565b8355505b6001600288020188555050505b505050505050565b6000819050919050565b6109e9816109d6565b82525050565b6109f8816107d2565b82525050565b600060a082019050610a1360008301886109e0565b610a2060208301876109e0565b610a2d60408301866109e0565b610a3a60608301856109ef565b610a4760808301846105a1565b9695505050505050565b60005b83811015610a6f578082015181840152602081019050610a54565b60008484015250505050565b6000601f19601f8301169050919050565b6000610a97826106b4565b610aa181856105cb565b9350610ab1818560208601610a51565b610aba81610a7b565b840191505092915050565b60006020820190508181036000830152610adf8184610a8c565b905092915050565b600081519050919050565b6000819050602082019050919050565b6000610b0e82516109d6565b80915050919050565b6000610b2282610ae7565b82610b2c84610af2565b9050610b3781610b02565b92506020821015610b7757610b727fffffffffffffffffffffffffffffffffffffffffffffffffffffffffffffffff83602003600802610773565b831692505b5050919050565b60805160a05160c05160e0516101005161012051610140516101605161018051612a6f610c0a600039600081816107620152818161093e0152610c4f01526000818161062101528181610b100152611136015260006114b80152600061147d0152600061198201526000611961015260006115360152600061158c015260006115b50152612a6f6000f3fe60806040526004361061010d5760003560e01c806384b0196e11610095578063cf2c033411610064578063cf2c03341461035e578063cf7c9d401461039c578063f2fde38b146103d9578063f978fd6114610402578063ff9d2dcc1461043f5761014d565b806384b0196e1461029a5780638da5cb5b146102cb578063b8deb6a9146102f6578063c6e5d8f6146103215761014d565b80635c975abb116100dc5780635c975abb146101fa57806361d027b314610225578063715018a61461025057806382e2a84c146102675780638456cb59146102835761014d565b80631f46c9e8146101525780633f4ba83a1461018f5780634dbe2cbb146101a6578063518ab2a8146101cf5761014d565b3661014d576040517f08c379a000000000000000000000000000000000000000000000000000000000815260040161014490611be7565b60405180910390fd5b600080fd5b34801561015e57600080fd5b5061017960048036038101906101749190611c79565b61046a565b6040516101869190611cbf565b60405180910390f35b34801561019b57600080fd5b506101a46104b3565b005b3480156101b257600080fd5b506101cd60048036038101906101c89190611e88565b6104c5565b005b3480156101db57600080fd5b506101e461091f565b6040516101f19190611cbf565b60405180910390f35b34801561020657600080fd5b5061020f610925565b60405161021c9190611f4c565b60405180910390f35b34801561023157600080fd5b5061023a61093c565b6040516102479190611f76565b60405180910390f35b34801561025c57600080fd5b50610265610960565b005b610281600480360381019061027c9190611f91565b610974565b005b34801561028f57600080fd5b50610298610e8e565b005b3480156102a657600080fd5b506102af610ea0565b6040516102c297969594939291906121a8565b60405180910390f35b3480156102d757600080fd5b506102e0610f4a565b6040516102ed9190611f76565b60405180910390f35b34801561030257600080fd5b5061030b610f74565b6040516103189190611cbf565b60405180910390f35b34801561032d57600080fd5b5061034860048036038101906103439190611c79565b610f83565b604051610355919061230a565b60405180910390f35b34801561036a57600080fd5b506103856004803603810190610380919061232c565b611035565b60405161039392919061236c565b60405180910390f35b3480156103a857600080fd5b506103c360048036038101906103be9190611c79565b611076565b6040516103d09190611cbf565b60405180910390f35b3480156103e557600080fd5b5061040060048036038101906103fb9190611c79565b61108e565b005b34801561040e57600080fd5b50610429600480360381019061042491906123c1565b611114565b6040516104369190611f4c565b60405180910390f35b34801561044b57600080fd5b50610454611134565b6040516104619190611f76565b60405180910390f35b6000600460008373ffffffffffffffffffffffffffffffffffffffff1673ffffffffffffffffffffffffffffffffffffffff168152602001908152602001600020549050919050565b6104bb611158565b6104c36111df565b565b6104cd611242565b6a14adf4b7320334b9000000846003546104e7919061241d565b1115610528576040517f08c379a000000000000000000000000000000000000000000000000000000000815260040161051f9061249d565b60405180910390fd5b60008160405160200161053b9190612504565b6040516020818303038152906040528051906020012090506006600082815260200190815260200160002060009054906101000a900460ff16156105b4576040517f08c379a00000000000000000000000000000000000000000000000000000000081526004016105ab90612567565b60405180910390fd5b600061060f7fe81e25150926829a792869bc47e4bac8ef8f230033484082729411bce09b211389898989896040516020016105f496959493929190612596565b60405160208183030381529060405280519060200120611283565b9050600061061d828561129d565b90507f000000000000000000000000000000000000000000000000000000000000000073ffffffffffffffffffffffffffffffffffffffff168173ffffffffffffffffffffffffffffffffffffffff16146106ad576040517f08c379a00000000000000000000000000000000000000000000000000000000081526004016106a490612643565b60405180910390fd5b610e10866106bb9190612663565b63ffffffff16421115610703576040517f08c379a00000000000000000000000000000000000000000000000000000000081526004016106fa906126e7565b60405180910390fd5b60016006600085815260200190815260200160002060006101000a81548160ff021916908315150217905550827fa4b9136d77e35241afc25d89e59af837b942ce9a7a4c0a42fcb8bac06514057260405160405180910390a26107a9337f00000000000000000000000000000000000000000000000000000000000000008a8c73ffffffffffffffffffffffffffffffffffffffff166112c9909392919063ffffffff16565b86600460003373ffffffffffffffffffffffffffffffffffffffff1673ffffffffffffffffffffffffffffffffffffffff16815260200190815260200160002060008282546107f8919061241d565b925050819055508660036000828254610811919061241d565b92505081905550600560003373ffffffffffffffffffffffffffffffffffffffff1673ffffffffffffffffffffffffffffffffffffffff1681526020019081526020016000206040518060400160405280428152602001898152509080600181540180825580915050600190039060005260206000209060020201600090919091909150600082015181600001556020820151816001015550508873ffffffffffffffffffffffffffffffffffffffff163373ffffffffffffffffffffffffffffffffffffffff167f1290fefcce3ce0d0b470a7d6a3409616de89f6f2d3548a0bee4d273f414233ce8a8a4260405161090c93929190612707565b60405180910390a3505050505050505050565b60035481565b6000600260149054906101000a900460ff16905090565b7f000000000000000000000000000000000000000000000000000000000000000081565b610968611158565b610972600061134b565b565b61097c611242565b6a14adf4b7320334b900000084600354610996919061241d565b11156109d7576040517f08c379a00000000000000000000000000000000000000000000000000000000081526004016109ce9061249d565b60405180910390fd5b843414610a19576040517f08c379a0000000000000000000000000000000000000000000000000000000008152600401610a109061278a565b60405180910390fd5b600081604051602001610a2c9190612504565b6040516020818303038152906040528051906020012090506006600082815260200190815260200160002060009054906101000a900460ff1615610aa5576040517f08c379a0000000000000000000000000000000000000000000000000000000008152600401610a9c90612567565b60405180910390fd5b6000610afe7fdaf7ebfbd2c48cea1323a305dc13c92e937fe9809ab0fa9a1322c905f3e8b00f88888888604051602001610ae39594939291906127aa565b60405160208183030381529060405280519060200120611283565b90506000610b0c828561129d565b90507f000000000000000000000000000000000000000000000000000000000000000073ffffffffffffffffffffffffffffffffffffffff168173ffffffffffffffffffffffffffffffffffffffff1614610b9c576040517f08c379a0000000000000000000000000000000000000000000000000000000008152600401610b9390612643565b60405180910390fd5b610e1086610baa9190612663565b63ffffffff16421115610bf2576040517f08c379a0000000000000000000000000000000000000000000000000000000008152600401610be9906126e7565b60405180910390fd5b60016006600085815260200190815260200160002060006101000a81548160ff021916908315150217905550827fa4b9136d77e35241afc25d89e59af837b942ce9a7a4c0a42fcb8bac06514057260405160405180910390a260007f000000000000000000000000000000000000000000000000000000000000000073ffffffffffffffffffffffffffffffffffffffff1634604051610c9190612823565b60006040518083038185875af1925050503d8060008114610cce576040519150601f19603f3d011682016040523d82523d6000602084013e610cd3565b606091505b5050905080610d17576040517f08c379a0000000000000000000000000000000000000000000000000000000008152600401610d0e90612884565b60405180910390fd5b87600460003373ffffffffffffffffffffffffffffffffffffffff1673ffffffffffffffffffffffffffffffffffffffff1681526020019081526020016000206000828254610d66919061241d565b925050819055508760036000828254610d7f919061241d565b92505081905550600560003373ffffffffffffffffffffffffffffffffffffffff1673ffffffffffffffffffffffffffffffffffffffff16815260200190815260200160002060405180604001604052804281526020018a815250908060018154018082558091505060019003906000526020600020906002020160009091909190915060008201518160000155602082015181600101555050600073ffffffffffffffffffffffffffffffffffffffff163373ffffffffffffffffffffffffffffffffffffffff167f1290fefcce3ce0d0b470a7d6a3409616de89f6f2d3548a0bee4d273f414233ce348b42604051610e7b93929190612707565b60405180910390a3505050505050505050565b610e96611158565b610e9e611411565b565b600060608060008060006060610eb4611474565b610ebc6114af565b46306000801b600067ffffffffffffffff811115610edd57610edc611d5d565b5b604051908082528060200260200182016040528015610f0b5781602001602082028036833780820191505090505b507f0f00000000000000000000000000000000000000000000000000000000000000959493929190965096509650965096509650965090919293949596565b6000600260009054906101000a900473ffffffffffffffffffffffffffffffffffffffff16905090565b6a14adf4b7320334b900000081565b6060600560008373ffffffffffffffffffffffffffffffffffffffff1673ffffffffffffffffffffffffffffffffffffffff168152602001908152602001600020805480602002602001604051908101604052809291908181526020016000905b8282101561102a57838290600052602060002090600202016040518060400160405290816000820154815260200160018201548152505081526020019060010190610fe4565b505050509050919050565b6005602052816000526040600020818154811061105157600080fd5b9060005260206000209060020201600091509150508060000154908060010154905082565b60046020528060005260406000206000915090505481565b611096611158565b600073ffffffffffffffffffffffffffffffffffffffff168173ffffffffffffffffffffffffffffffffffffffff16036111085760006040517f1e4fbdf70000000000000000000000000000000000000000000000000000000081526004016110ff9190611f76565b60405180910390fd5b6111118161134b565b50565b60066020528060005260406000206000915054906101000a900460ff1681565b7f000000000000000000000000000000000000000000000000000000000000000081565b6111606114ea565b73ffffffffffffffffffffffffffffffffffffffff1661117e610f4a565b73ffffffffffffffffffffffffffffffffffffffff16146111dd576111a16114ea565b6040517f118cdaa70000000000000000000000000000000000000000000000000000000081526004016111d49190611f76565b60405180910390fd5b565b6111e76114f2565b6000600260146101000a81548160ff0219169083151502179055507f5db9ee0a495bf2e6ff9c91a7834c1ba4fdd244a5e8aa4e537bd38aeae4b073aa61122b6114ea565b6040516112389190611f76565b60405180910390a1565b61124a610925565b15611281576040517fd93c066500000000000000000000000000000000000000000000000000000000815260040160405180910390fd5b565b6000611296611290611532565b836115e9565b9050919050565b6000806000806112ad868661162a565b9250925092506112bd8282611686565b82935050505092915050565b611345848573ffffffffffffffffffffffffffffffffffffffff166323b872dd8686866040516024016112fe939291906128a4565b604051602081830303815290604052915060e01b6020820180517bffffffffffffffffffffffffffffffffffffffffffffffffffffffff83818316178352505050506117ea565b50505050565b6000600260009054906101000a900473ffffffffffffffffffffffffffffffffffffffff16905081600260006101000a81548173ffffffffffffffffffffffffffffffffffffffff021916908373ffffffffffffffffffffffffffffffffffffffff1602179055508173ffffffffffffffffffffffffffffffffffffffff168173ffffffffffffffffffffffffffffffffffffffff167f8be0079c531659141344cd1fd0a4f28419497f9722a3daafe3b4186f6b6457e060405160405180910390a35050565b611419611242565b6001600260146101000a81548160ff0219169083151502179055507f62e78cea01bee320cd4e420270b5ea74000d11b0c9f74754ebdbfc544b05a25861145d6114ea565b60405161146a9190611f76565b60405180910390a1565b60606114aa60007f000000000000000000000000000000000000000000000000000000000000000061188c90919063ffffffff16565b905090565b60606114e560017f000000000000000000000000000000000000000000000000000000000000000061188c90919063ffffffff16565b905090565b600033905090565b6114fa610925565b611530576040517f8dfc202b00000000000000000000000000000000000000000000000000000000815260040160405180910390fd5b565b60007f000000000000000000000000000000000000000000000000000000000000000073ffffffffffffffffffffffffffffffffffffffff163073ffffffffffffffffffffffffffffffffffffffff161480156115ae57507f000000000000000000000000000000000000000000000000000000000000000046145b156115db577f000000000000000000000000000000000000000000000000000000000000000090506115e6565b6115e361193c565b90505b90565b60006040517f190100000000000000000000000000000000000000000000000000000000000081528360028201528260228201526042812091505092915050565b6000806000604184510361166f5760008060006020870151925060408701519150606087015160001a9050611661888285856119d2565b95509550955050505061167f565b60006002855160001b9250925092505b9250925092565b6000600381111561169a576116996128db565b5b8260038111156116ad576116ac6128db565b5b03156117e657600160038111156116c7576116c66128db565b5b8260038111156116da576116d96128db565b5b03611711576040517ff645eedf00000000000000000000000000000000000000000000000000000000815260040160405180910390fd5b60026003811115611725576117246128db565b5b826003811115611738576117376128db565b5b0361177d578060001c6040517ffce698f70000000000000000000000000000000000000000000000000000000081526004016117749190611cbf565b60405180910390fd5b6003808111156117905761178f6128db565b5b8260038111156117a3576117a26128db565b5b036117e557806040517fd78bce0c0000000000000000000000000000000000000000000000000000000081526004016117dc919061290a565b60405180910390fd5b5b5050565b600080602060008451602086016000885af18061180d576040513d6000823e3d81fd5b3d925060005191505060008214611828576001811415611844565b60008473ffffffffffffffffffffffffffffffffffffffff163b145b1561188657836040517f5274afe700000000000000000000000000000000000000000000000000000000815260040161187d9190611f76565b60405180910390fd5b50505050565b606060ff60001b83146118a9576118a283611ac6565b9050611936565b8180546118b590612954565b80601f01602080910402602001604051908101604052809291908181526020018280546118e190612954565b801561192e5780601f106119035761010080835404028352916020019161192e565b820191906000526020600020905b81548152906001019060200180831161191157829003601f168201915b505050505090505b92915050565b60007f8b73c3c69bb8fe3d512ecc4cf759cc79239f7b179b0ffacaa9a75d522b39400f7f00000000000000000000000000000000000000000000000000000000000000007f000000000000000000000000000000000000000000000000000000000000000046306040516020016119b7959493929190612985565b60405160208183030381529060405280519060200120905090565b60008060007f7fffffffffffffffffffffffffffffff5d576e7357a4501ddfe92f46681b20a08460001c1115611a12576000600385925092509250611abc565b600060018888888860405160008152602001604052604051611a3794939291906129f4565b6020604051602081039080840390855afa158015611a59573d6000803e3d6000fd5b505050602060405103519050600073ffffffffffffffffffffffffffffffffffffffff168173ffffffffffffffffffffffffffffffffffffffff1603611aad57600060016000801b93509350935050611abc565b8060008060001b935093509350505b9450945094915050565b60606000611ad383611b3a565b90506000602067ffffffffffffffff811115611af257611af1611d5d565b5b6040519080825280601f01601f191660200182016040528015611b245781602001600182028036833780820191505090505b5090508181528360208201528092505050919050565b60008060ff8360001c169050601f811115611b81576040517fb3512b0c00000000000000000000000000000000000000000000000000000000815260040160405180910390fd5b80915050919050565b600082825260208201905092915050565b7f5573652062757943616368655769746845746820696e73746561640000000000600082015250565b6000611bd1601b83611b8a565b9150611bdc82611b9b565b602082019050919050565b60006020820190508181036000830152611c0081611bc4565b9050919050565b6000604051905090565b600080fd5b600080fd5b600073ffffffffffffffffffffffffffffffffffffffff82169050919050565b6000611c4682611c1b565b9050919050565b611c5681611c3b565b8114611c6157600080fd5b50565b600081359050611c7381611c4d565b92915050565b600060208284031215611c8f57611c8e611c11565b5b6000611c9d84828501611c64565b91505092915050565b6000819050919050565b611cb981611ca6565b82525050565b6000602082019050611cd46000830184611cb0565b92915050565b611ce381611ca6565b8114611cee57600080fd5b50565b600081359050611d0081611cda565b92915050565b600063ffffffff82169050919050565b611d1f81611d06565b8114611d2a57600080fd5b50565b600081359050611d3c81611d16565b92915050565b600080fd5b600080fd5b6000601f19601f8301169050919050565b7f4e487b7100000000000000000000000000000000000000000000000000000000600052604160045260246000fd5b611d9582611d4c565b810181811067ffffffffffffffff82111715611db457611db3611d5d565b5b80604052505050565b6000611dc7611c07565b9050611dd38282611d8c565b919050565b600067ffffffffffffffff821115611df357611df2611d5d565b5b611dfc82611d4c565b9050602081019050919050565b82818337600083830152505050565b6000611e2b611e2684611dd8565b611dbd565b905082815260208101848484011115611e4757611e46611d47565b5b611e52848285611e09565b509392505050565b600082601f830112611e6f57611e6e611d42565b5b8135611e7f848260208601611e18565b91505092915050565b60008060008060008060c08789031215611ea557611ea4611c11565b5b6000611eb389828a01611c64565b9650506020611ec489828a01611cf1565b9550506040611ed589828a01611cf1565b9450506060611ee689828a01611d2d565b9350506080611ef789828a01611cf1565b92505060a087013567ffffffffffffffff811115611f1857611f17611c16565b5b611f2489828a01611e5a565b9150509295509295509295565b60008115159050919050565b611f4681611f31565b82525050565b6000602082019050611f616000830184611f3d565b92915050565b611f7081611c3b565b82525050565b6000602082019050611f8b6000830184611f67565b92915050565b600080600080600060a08688031215611fad57611fac611c11565b5b6000611fbb88828901611cf1565b9550506020611fcc88828901611cf1565b9450506040611fdd88828901611d2d565b9350506060611fee88828901611cf1565b925050608086013567ffffffffffffffff81111561200f5761200e611c16565b5b61201b88828901611e5a565b9150509295509295909350565b60007fff0000000000000000000000000000000000000000000000000000000000000082169050919050565b61205d81612028565b82525050565b600081519050919050565b60005b8381101561208c578082015181840152602081019050612071565b60008484015250505050565b60006120a382612063565b6120ad8185611b8a565b93506120bd81856020860161206e565b6120c681611d4c565b840191505092915050565b6000819050919050565b6120e4816120d1565b82525050565b600081519050919050565b600082825260208201905092915050565b6000819050602082019050919050565b61211f81611ca6565b82525050565b60006121318383612116565b60208301905092915050565b6000602082019050919050565b6000612155826120ea565b61215f81856120f5565b935061216a83612106565b8060005b8381101561219b5781516121828882612125565b975061218d8361213d565b92505060018101905061216e565b5085935050505092915050565b600060e0820190506121bd600083018a612054565b81810360208301526121cf8189612098565b905081810360408301526121e38188612098565b90506121f26060830187611cb0565b6121ff6080830186611f67565b61220c60a08301856120db565b81810360c083015261221e818461214a565b905098975050505050505050565b600081519050919050565b600082825260208201905092915050565b6000819050602082019050919050565b60408201600082015161226e6000850182612116565b5060208201516122816020850182612116565b50505050565b60006122938383612258565b60408301905092915050565b6000602082019050919050565b60006122b78261222c565b6122c18185612237565b93506122cc83612248565b8060005b838110156122fd5781516122e48882612287565b97506122ef8361229f565b9250506001810190506122d0565b5085935050505092915050565b6000602082019050818103600083015261232481846122ac565b905092915050565b6000806040838503121561234357612342611c11565b5b600061235185828601611c64565b925050602061236285828601611cf1565b9150509250929050565b60006040820190506123816000830185611cb0565b61238e6020830184611cb0565b9392505050565b61239e816120d1565b81146123a957600080fd5b50565b6000813590506123bb81612395565b92915050565b6000602082840312156123d7576123d6611c11565b5b60006123e5848285016123ac565b91505092915050565b7f4e487b7100000000000000000000000000000000000000000000000000000000600052601160045260246000fd5b600061242882611ca6565b915061243383611ca6565b925082820190508082111561244b5761244a6123ee565b5b92915050565b7f546f6b656e2073616c6520686172642063617020726561636865640000000000600082015250565b6000612487601b83611b8a565b915061249282612451565b602082019050919050565b600060208201905081810360008301526124b68161247a565b9050919050565b600081519050919050565b600081905092915050565b60006124de826124bd565b6124e881856124c8565b93506124f881856020860161206e565b80840191505092915050565b600061251082846124d3565b915081905092915050565b7f5369676e617475726520616c7265616479207573656400000000000000000000600082015250565b6000612551601683611b8a565b915061255c8261251b565b602082019050919050565b6000602082019050818103600083015261258081612544565b9050919050565b61259081611d06565b82525050565b600060c0820190506125ab60008301896120db565b6125b86020830188611f67565b6125c56040830187611cb0565b6125d26060830186611cb0565b6125df6080830185612587565b6125ec60a0830184611cb0565b979650505050505050565b7f496e76616c6964207369676e6174757265000000000000000000000000000000600082015250565b600061262d601183611b8a565b9150612638826125f7565b602082019050919050565b6000602082019050818103600083015261265c81612620565b9050919050565b600061266e82611d06565b915061267983611d06565b9250828201905063ffffffff811115612695576126946123ee565b5b92915050565b7f5369676e61747572652065787069726564000000000000000000000000000000600082015250565b60006126d1601183611b8a565b91506126dc8261269b565b602082019050919050565b60006020820190508181036000830152612700816126c4565b9050919050565b600060608201905061271c6000830186611cb0565b6127296020830185611cb0565b6127366040830184611cb0565b949350505050565b7f45544820616d6f756e74206d69736d6174636800000000000000000000000000600082015250565b6000612774601383611b8a565b915061277f8261273e565b602082019050919050565b600060208201905081810360008301526127a381612767565b9050919050565b600060a0820190506127bf60008301886120db565b6127cc6020830187611cb0565b6127d96040830186611cb0565b6127e66060830185612587565b6127f36080830184611cb0565b9695505050505050565b50565b600061280d6000836124c8565b9150612818826127fd565b600082019050919050565b600061282e82612800565b9150819050919050565b7f455448207472616e73666572206661696c656400000000000000000000000000600082015250565b600061286e601383611b8a565b915061287982612838565b602082019050919050565b6000602082019050818103600083015261289d81612861565b9050919050565b60006060820190506128b96000830186611f67565b6128c66020830185611f67565b6128d36040830184611cb0565b949350505050565b7f4e487b7100000000000000000000000000000000000000000000000000000000600052602160045260246000fd5b600060208201905061291f60008301846120db565b92915050565b7f4e487b7100000000000000000000000000000000000000000000000000000000600052602260045260246000fd5b6000600282049050600182168061296c57607f821691505b60208210810361297f5761297e612925565b5b50919050565b600060a08201905061299a60008301886120db565b6129a760208301876120db565b6129b460408301866120db565b6129c16060830185611cb0565b6129ce6080830184611f67565b9695505050505050565b600060ff82169050919050565b6129ee816129d8565b82525050565b6000608082019050612a0960008301876120db565b612a1660208301866129e5565b612a2360408301856120db565b612a3060608301846120db565b9594505050505056fea2646970667358221220d5f849a10157e4bed867a24e39029af4b6c4c875a36587bc195f5e69bf013a5164736f6c634300081c0033",
  "linkReferences": {},
  "deployedLinkReferences": {}
}